:100000001AC034C033C002C131C0B6C02FC02EC028
:100010002DC02CC02BC02AC029C028C027C000007A
:100020000000380000000000370002020202020255
:1000300001020408102011241FBECFE5D2E0DEBF6C
:10004000CDBF10E0A0E6B0E0E0E5F5E002C005902D
:100050000D92AC38B107D9F720E0ACE8B0E001C0B0
:100060001D92A23AB207E1F737D170C2C9CF3FB7AC
:10007000F89480919E0090919F00A091A000B09173
:10008000A10022B708B601FE05C02F3F19F0019666
:10009000A11DB11D3FBFBA2FA92F982F8827BC01E2
:1000A000CD01620F711D811D911D43E0660F771F09
:1000B000881F991F4A95D1F70895909160009F3F3E
:1000C00049F1981711F08F3F29F589B78B7989BFCE
:1000D00010BE8CB581788CBD1FBC1EBC1BBC1DBC6A
:1000E00089B78B7989BF84E688BF80E48CBD8FEFA8
:1000F0008DBD87EC80BFE0919100F0919200309728
:1001000031F08091900090818095892380838FEFDA
:10011000809360000895CF93DF9390E0FC01E05D51
:10012000FF4F2491865D9F4FFC0184918823D1F07D
:1001300090E0880F991FFC01EC5DFF4FA591B491F1
:10014000FC01E25EFF4FC591D491623071F49FB71C
:10015000F8943C91822F809583238C93E8812E2BF9
:1001600028839FBFDF91CF9108958FB7F894EC91CA
:100170002E2B2C938FBFF6CF1F920F920FB60F929C
:1001800011242F933F938F939F93AF93BF938091AD
:100190009A0090919B00A0919C00B0919D0030919D
:1001A000990026E0230F2D3768F129E8230F0396E5
:1001B000A11DB11D2093990080939A0090939B00FC
:1001C000A0939C00B0939D0080919E0090919F0011
:1001D000A091A000B091A1000196A11DB11D809336
:1001E0009E0090939F00A093A000B093A100BF91A8
:1001F000AF919F918F913F912F910F900FBE0F90D4
:100200001F9018950296A11DB11DD4CF1F920F9279
:100210000FB60F9211242F933F934F935F936F93D9
:100220007F938F939F93AF93BF93EF93FF938091AF
:100230008C0090918D00A0918E00B0918F00892B41
:100240008A2B8B2B61F180918C0090918D00A09175
:100250008E00B0918F00181619061A061B0694F529
:1002600080918C0090918D00A0918E00B0918F00B4
:100270000197A109B10980938C0090938D00A09300
:100280008E00B0938F0080918C0090918D00A09192
:100290008E00B0918F00892B8A2B8B2B99F48FEFD6
:1002A0000CDFFF91EF91BF91AF919F918F917F9163
:1002B0006F915F914F913F912F910F900FBE0F90D3
:1002C0001F90189590919000E0919100F09192000C
:1002D000808189278083E5CF83E08ABD83BF7894BE
:1002E00089B7826089BF80E48CBD8FEF8DBD87ECBC
:1002F00080BF86E886B961E084E00DDF62E080E0DF
:100300000ADF04E110E0812C39E0932E3DE3A32EB7
:10031000B12C44244A94542C320150E8352EB09923
:10032000C7C08091610090916200019709F08BC075
:10033000E0919700F0919800EE0FFF1FED59FF4FED
:10034000C080D1800D2C000CEE08FF088091600069
:10035000843071F440919300509194006091950025
:1003600070919600C416D506E606F70609F460C03B
:10037000C0929300D0929400E0929500F092960083
:100380008F3F09F510BE8CB581788CBD1FBC1EBC9B
:100390001BBC1DBC89B78B7989BF88B7846688BFB1
:1003A00030BE1092920010929100109290008CB585
:1003B0008F7D8CBD8CB580618CBD61E084E0ABDE4F
:1003C00084E08093600080916000843089F580B77C
:1003D000807F80BF1FBCC114D104E104F10409F483
:1003E00053C0C501B401A70196017AD081E02F3F27
:1003F00031054105510549F040F08F3031F08F5FF4
:100400005695479537952795F2CF9FEF920F9DBD53
:1004100021503109410951092EBD40928C00509262
:100420008D0060928E0070928F0090B7892B80BFF4
:1004300080919700909198000196B8013ED09093DA
:1004400098008093970090E080E090936200809302
:1004500061000DDEEB0182E3C82ED12CE12CF12CE2
:1004600006DE6C1B7D0B683E7340E0F0C114D104C6
:10047000E104F10409F453CF81E0C81AD108E1087E
:10048000F108C851DC4FECCF89B7806489BF89B7C8
:100490008B7989BF8CB58F7D8CBD8FB7F894C4984C
:1004A0008FBFC6CFC114D104E104F104C9F637CF20
:1004B00084E003DE81E090E0C8CF97FB072E16F4BE
:1004C000009406D077FD08D02DD007FC05D03EF46F
:1004D000909581959F4F0895709561957F4F0895F0
:1004E000A1E21A2EAA1BBB1BFD010DC0AA1FBB1F38
:1004F000EE1FFF1FA217B307E407F50720F0A21BAA
:10050000B30BE40BF50B661F771F881F991F1A9416
:1005100069F760957095809590959B01AC01BD0140
:10052000CF010895AA1BBB1B51E107C0AA1FBB1F27
:10053000A617B70710F0A61BB70B881F991F5A956F
:10054000A9F780959095BC01CD010895F894FFCF4F
:10055000FF01009302EE010B024B020B02EE01B809
:1005600001B8010B0293024B020B02EE01EE010BEC
:0C057000024B0293020B02B801B801001C
:00000001FF
